{
  "_format": "hh-sol-artifact-1",
  "contractName": "Identity",
  "sourceName": "contracts/Identity.sol",
  "abi": [
    {
      "inputs": [],
      "stateMutability": "nonpayable",
      "type": "constructor"
    },
    {
      "anonymous": false,
      "inputs": [
        {
          "indexed": true,
          "internalType": "address",
          "name": "user",
          "type": "address"
        },
        {
          "indexed": false,
          "internalType": "string",
          "name": "dataHash",
          "type": "string"
        }
      ],
      "name": "UserRegistered",
      "type": "event"
    },
    {
      "anonymous": false,
      "inputs": [
        {
          "indexed": true,
          "internalType": "address",
          "name": "user",
          "type": "address"
        }
      ],
      "name": "UserRevoked",
      "type": "event"
    },
    {
      "anonymous": false,
      "inputs": [
        {
          "indexed": true,
          "internalType": "address",
          "name": "user",
          "type": "address"
        }
      ],
      "name": "UserVerified",
      "type": "event"
    },
    {
      "anonymous": false,
      "inputs": [
        {
          "indexed": true,
          "internalType": "address",
          "name": "verifier",
          "type": "address"
        }
      ],
      "name": "VerifierAdded",
      "type": "event"
    },
    {
      "anonymous": false,
      "inputs": [
        {
          "indexed": true,
          "internalType": "address",
          "name": "verifier",
          "type": "address"
        }
      ],
      "name": "VerifierRemoved",
      "type": "event"
    },
    {
      "inputs": [
        {
          "internalType": "address",
          "name": "_verifier",
          "type": "address"
        }
      ],
      "name": "addVerifier",
      "outputs": [],
      "stateMutability": "nonpayable",
      "type": "function"
    },
    {
      "inputs": [],
      "name": "admin",
      "outputs": [
        {
          "internalType": "address",
          "name": "",
          "type": "address"
        }
      ],
      "stateMutability": "view",
      "type": "function"
    },
    {
      "inputs": [
        {
          "internalType": "address",
          "name": "_user",
          "type": "address"
        }
      ],
      "name": "approveUser",
      "outputs": [],
      "stateMutability": "nonpayable",
      "type": "function"
    },
    {
      "inputs": [
        {
          "internalType": "address",
          "name": "_user",
          "type": "address"
        }
      ],
      "name": "checkIsVerified",
      "outputs": [
        {
          "internalType": "bool",
          "name": "",
          "type": "bool"
        }
      ],
      "stateMutability": "view",
      "type": "function"
    },
    {
      "inputs": [
        {
          "internalType": "address",
          "name": "",
          "type": "address"
        }
      ],
      "name": "isVerifier",
      "outputs": [
        {
          "internalType": "bool",
          "name": "",
          "type": "bool"
        }
      ],
      "stateMutability": "view",
      "type": "function"
    },
    {
      "inputs": [
        {
          "internalType": "string",
          "name": "_dataHash",
          "type": "string"
        }
      ],
      "name": "registerIdentity",
      "outputs": [],
      "stateMutability": "nonpayable",
      "type": "function"
    },
    {
      "inputs": [
        {
          "internalType": "address",
          "name": "_verifier",
          "type": "address"
        }
      ],
      "name": "removeVerifier",
      "outputs": [],
      "stateMutability": "nonpayable",
      "type": "function"
    },
    {
      "inputs": [
        {
          "internalType": "address",
          "name": "_user",
          "type": "address"
        }
      ],
      "name": "revokeUser",
      "outputs": [],
      "stateMutability": "nonpayable",
      "type": "function"
    },
    {
      "inputs": [
        {
          "internalType": "address",
          "name": "",
          "type": "address"
        }
      ],
      "name": "userIdentities",
      "outputs": [
        {
          "internalType": "string",
          "name": "",
          "type": "string"
        }
      ],
      "stateMutability": "view",
      "type": "function"
    },
    {
      "inputs": [
        {
          "internalType": "address",
          "name": "",
          "type": "address"
        }
      ],
      "name": "userStatus",
      "outputs": [
        {
          "internalType": "string",
          "name": "",
          "type": "string"
        }
      ],
      "stateMutability": "view",
      "type": "function"
    }
  ],
  "bytecode": "0x6080604052348015600f57600080fd5b50336000806101000a81548173ffffffffffffffffffffffffffffffffffffffff021916908373ffffffffffffffffffffffffffffffffffffffff1602179055506115f28061005f6000396000f3fe608060405234801561001057600080fd5b506004361061009e5760003560e01c8063a59cabf311610066578063a59cabf31461016b578063ca2dfd0a1461019b578063d624fdb6146101b7578063ef097fc4146101d3578063f851a440146101ef5761009e565b80631b194549146100a3578063225d29a1146100d357806333105218146101035780639000b3d61461013357806392849ca41461014f575b600080fd5b6100bd60048036038101906100b89190610d61565b61020d565b6040516100ca9190610e1e565b60405180910390f35b6100ed60048036038101906100e89190610d61565b6102ad565b6040516100fa9190610e1e565b60405180910390f35b61011d60048036038101906101189190610d61565b61034d565b60405161012a9190610e5b565b60405180910390f35b61014d60048036038101906101489190610d61565b61036d565b005b61016960048036038101906101649190610fab565b610498565b005b61018560048036038101906101809190610d61565b6106df565b6040516101929190610e5b565b60405180910390f35b6101b560048036038101906101b09190610d61565b61077a565b005b6101d160048036038101906101cc9190610d61565b6108a6565b005b6101ed60048036038101906101e89190610d61565b610b21565b005b6101f7610ccb565b6040516102049190611003565b60405180910390f35b6002602052806000526040600020600091509050805461022c9061104d565b80601f01602080910402602001604051908101604052809291908181526020018280546102589061104d565b80156102a55780601f1061027a576101008083540402835291602001916102a5565b820191906000526020600020905b81548152906001019060200180831161028857829003601f168201915b505050505081565b600360205280600052604060002060009150905080546102cc9061104d565b80601f01602080910402602001604051908101604052809291908181526020018280546102f89061104d565b80156103455780601f1061031a57610100808354040283529160200191610345565b820191906000526020600020905b81548152906001019060200180831161032857829003601f168201915b505050505081565b60016020528060005260406000206000915054906101000a900460ff1681565b60008054906101000a900473ffffffffffffffffffffffffffffffffffffffff1673ffffffffffffffffffffffffffffffffffffffff163373ffffffffffffffffffffffffffffffffffffffff16146103fb576040517f08c379a00000000000000000000000000000000000000000000000000000000081526004016103f2906110f0565b60405180910390fd5b60018060008373ffffffffffffffffffffffffffffffffffffffff1673ffffffffffffffffffffffffffffffffffffffff16815260200190815260200160002060006101000a81548160ff0219169083151502179055508073ffffffffffffffffffffffffffffffffffffffff167f6d05492139c5ea989514a5d2150c028041e5c087e2a39967f67dc7d2655adb8160405160405180910390a250565b6000600360003373ffffffffffffffffffffffffffffffffffffffff1673ffffffffffffffffffffffffffffffffffffffff16815260200190815260200160002080546104e49061104d565b9050148061058057506040518060400160405280600481526020017f4e6f6e650000000000000000000000000000000000000000000000000000000081525080519060200120600360003373ffffffffffffffffffffffffffffffffffffffff1673ffffffffffffffffffffffffffffffffffffffff16815260200190815260200160002060405161057691906111b3565b6040518091039020145b6105bf576040517f08c379a00000000000000000000000000000000000000000000000000000000081526004016105b690611216565b60405180910390fd5b80600260003373ffffffffffffffffffffffffffffffffffffffff1673ffffffffffffffffffffffffffffffffffffffff168152602001908152602001600020908161060b91906113ec565b506040518060400160405280600781526020017f50656e64696e6700000000000000000000000000000000000000000000000000815250600360003373ffffffffffffffffffffffffffffffffffffffff1673ffffffffffffffffffffffffffffffffffffffff168152602001908152602001600020908161068d91906113ec565b503373ffffffffffffffffffffffffffffffffffffffff167f48cac28ad4dc618e15f4c2dd5e97751182f166de97b25618318b2112aa951a2f826040516106d49190610e1e565b60405180910390a250565b60006040518060400160405280600881526020017f566572696669656400000000000000000000000000000000000000000000000081525080519060200120600360008473ffffffffffffffffffffffffffffffffffffffff1673ffffffffffffffffffffffffffffffffffffffff16815260200190815260200160002060405161076a91906111b3565b6040518091039020149050919050565b60008054906101000a900473ffffffffffffffffffffffffffffffffffffffff1673ffffffffffffffffffffffffffffffffffffffff163373ffffffffffffffffffffffffffffffffffffffff1614610808576040517f08c379a00000000000000000000000000000000000000000000000000000000081526004016107ff906110f0565b60405180910390fd5b6000600160008373ffffffffffffffffffffffffffffffffffffffff1673ffffffffffffffffffffffffffffffffffffffff16815260200190815260200160002060006101000a81548160ff0219169083151502179055508073ffffffffffffffffffffffffffffffffffffffff167f44a3cd4eb5cc5748f6169df057b1cb2ae4c383e87cd94663c430e095d4cba42460405160405180910390a250565b600160003373ffffffffffffffffffffffffffffffffffffffff1673ffffffffffffffffffffffffffffffffffffffff16815260200190815260200160002060009054906101000a900460ff1680610949575060008054906101000a900473ffffffffffffffffffffffffffffffffffffffff1673ffffffffffffffffffffffffffffffffffffffff163373ffffffffffffffffffffffffffffffffffffffff16145b610988576040517f08c379a000000000000000000000000000000000000000000000000000000000815260040161097f90611530565b60405180910390fd5b6040518060400160405280600781526020017f50656e64696e670000000000000000000000000000000000000000000000000081525080519060200120600360008373ffffffffffffffffffffffffffffffffffffffff1673ffffffffffffffffffffffffffffffffffffffff168152602001908152602001600020604051610a1191906111b3565b604051809103902014610a59576040517f08c379a0000000000000000000000000000000000000000000000000000000008152600401610a509061159c565b60405180910390fd5b6040518060400160405280600881526020017f5665726966696564000000000000000000000000000000000000000000000000815250600360008373ffffffffffffffffffffffffffffffffffffffff1673ffffffffffffffffffffffffffffffffffffffff1681526020019081526020016000209081610ada91906113ec565b508073ffffffffffffffffffffffffffffffffffffffff167fa6625d2d26e786e2f473111bea4b2fcdbbf1863d883a2359989ce3a103d2972a60405160405180910390a250565b600160003373ffffffffffffffffffffffffffffffffffffffff1673ffffffffffffffffffffffffffffffffffffffff16815260200190815260200160002060009054906101000a900460ff1680610bc4575060008054906101000a900473ffffffffffffffffffffffffffffffffffffffff1673ffffffffffffffffffffffffffffffffffffffff163373ffffffffffffffffffffffffffffffffffffffff16145b610c03576040517f08c379a0000000000000000000000000000000000000000000000000000000008152600401610bfa90611530565b60405180910390fd5b6040518060400160405280600781526020017f5265766f6b656400000000000000000000000000000000000000000000000000815250600360008373ffffffffffffffffffffffffffffffffffffffff1673ffffffffffffffffffffffffffffffffffffffff1681526020019081526020016000209081610c8491906113ec565b508073ffffffffffffffffffffffffffffffffffffffff167fb43ac7bf01d16ebcb8c868a4c03fecb1f6984ea4fa1a52c116ef282b8dbb17c560405160405180910390a250565b60008054906101000a900473ffffffffffffffffffffffffffffffffffffffff1681565b6000604051905090565b600080fd5b600080fd5b600073ffffffffffffffffffffffffffffffffffffffff82169050919050565b6000610d2e82610d03565b9050919050565b610d3e81610d23565b8114610d4957600080fd5b50565b600081359050610d5b81610d35565b92915050565b600060208284031215610d7757610d76610cf9565b5b6000610d8584828501610d4c565b91505092915050565b600081519050919050565b600082825260208201905092915050565b60005b83811015610dc8578082015181840152602081019050610dad565b60008484015250505050565b6000601f19601f8301169050919050565b6000610df082610d8e565b610dfa8185610d99565b9350610e0a818560208601610daa565b610e1381610dd4565b840191505092915050565b60006020820190508181036000830152610e388184610de5565b905092915050565b60008115159050919050565b610e5581610e40565b82525050565b6000602082019050610e706000830184610e4c565b92915050565b600080fd5b600080fd5b7f4e487b7100000000000000000000000000000000000000000000000000000000600052604160045260246000fd5b610eb882610dd4565b810181811067ffffffffffffffff82111715610ed757610ed6610e80565b5b80604052505050565b6000610eea610cef565b9050610ef68282610eaf565b919050565b600067ffffffffffffffff821115610f1657610f15610e80565b5b610f1f82610dd4565b9050602081019050919050565b82818337600083830152505050565b6000610f4e610f4984610efb565b610ee0565b905082815260208101848484011115610f6a57610f69610e7b565b5b610f75848285610f2c565b509392505050565b600082601f830112610f9257610f91610e76565b5b8135610fa2848260208601610f3b565b91505092915050565b600060208284031215610fc157610fc0610cf9565b5b600082013567ffffffffffffffff811115610fdf57610fde610cfe565b5b610feb84828501610f7d565b91505092915050565b610ffd81610d23565b82525050565b60006020820190506110186000830184610ff4565b92915050565b7f4e487b7100000000000000000000000000000000000000000000000000000000600052602260045260246000fd5b6000600282049050600182168061106557607f821691505b6020821081036110785761107761101e565b5b50919050565b7f4163636573732044656e6965643a204f6e6c792061646d696e2063616e20706560008201527f72666f726d207468697320616374696f6e000000000000000000000000000000602082015250565b60006110da603183610d99565b91506110e58261107e565b604082019050919050565b60006020820190508181036000830152611109816110cd565b9050919050565b600081905092915050565b60008190508160005260206000209050919050565b6000815461113d8161104d565b6111478186611110565b945060018216600081146111625760018114611177576111aa565b60ff19831686528115158202860193506111aa565b6111808561111b565b60005b838110156111a257815481890152600182019150602081019050611183565b838801955050505b50505092915050565b60006111bf8284611130565b915081905092915050565b7f416c72656164792072656769737465726564206f722070656e64696e67000000600082015250565b6000611200601d83610d99565b915061120b826111ca565b602082019050919050565b6000602082019050818103600083015261122f816111f3565b9050919050565b60008190508160005260206000209050919050565b60006020601f8301049050919050565b600082821b905092915050565b6000600883026112987fffffffffffffffffffffffffffffffffffffffffffffffffffffffffffffffff8261125b565b6112a2868361125b565b95508019841693508086168417925050509392505050565b6000819050919050565b6000819050919050565b60006112e96112e46112df846112ba565b6112c4565b6112ba565b9050919050565b6000819050919050565b611303836112ce565b61131761130f826112f0565b848454611268565b825550505050565b600090565b61132c61131f565b6113378184846112fa565b505050565b5b8181101561135b57611350600082611324565b60018101905061133d565b5050565b601f8211156113a05761137181611236565b61137a8461124b565b81016020851015611389578190505b61139d6113958561124b565b83018261133c565b50505b505050565b600082821c905092915050565b60006113c3600019846008026113a5565b1980831691505092915050565b60006113dc83836113b2565b9150826002028217905092915050565b6113f582610d8e565b67ffffffffffffffff81111561140e5761140d610e80565b5b611418825461104d565b61142382828561135f565b600060209050601f8311600181146114565760008415611444578287015190505b61144e85826113d0565b8655506114b6565b601f19841661146486611236565b60005b8281101561148c57848901518255600182019150602085019450602081019050611467565b868310156114a957848901516114a5601f8916826113b2565b8355505b6001600288020188555050505b505050505050565b7f4163636573732044656e6965643a204f6e6c792076657269666965727320636160008201527f6e20706572666f726d207468697320616374696f6e0000000000000000000000602082015250565b600061151a603583610d99565b9150611525826114be565b604082019050919050565b600060208201905081810360008301526115498161150d565b9050919050565b7f55736572206973206e6f742063757272656e746c792070656e64696e67000000600082015250565b6000611586601d83610d99565b915061159182611550565b602082019050919050565b600060208201905081810360008301526115b581611579565b905091905056fea264697066735822122080eb38a3b491c5656d6d1b8086c1f77bf3121ecb87ca2e4e07a8ed66ba876c7c64736f6c634300081c0033",
  "linkReferences": {},
  "deployedLinkReferences": {}
}