{
  "_format": "hh-sol-artifact-1",
  "contractName": "KYCGatedAuction",
  "sourceName": "contracts/KYCGatedAuction.sol",
  "abi": [
    {
      "inputs": [
        {
          "internalType": "address",
          "name": "_identityContract",
          "type": "address"
        }
      ],
      "stateMutability": "nonpayable",
      "type": "constructor"
    },
    {
      "anonymous": false,
      "inputs": [
        {
          "indexed": false,
          "internalType": "address",
          "name": "winner",
          "type": "address"
        },
        {
          "indexed": false,
          "internalType": "uint256",
          "name": "amount",
          "type": "uint256"
        }
      ],
      "name": "AuctionEnded",
      "type": "event"
    },
    {
      "anonymous": false,
      "inputs": [],
      "name": "AuctionStarted",
      "type": "event"
    },
    {
      "anonymous": false,
      "inputs": [
        {
          "indexed": true,
          "internalType": "address",
          "name": "bidder",
          "type": "address"
        },
        {
          "indexed": false,
          "internalType": "uint256",
          "name": "amount",
          "type": "uint256"
        }
      ],
      "name": "BidPlaced",
      "type": "event"
    },
    {
      "inputs": [],
      "name": "auctionActive",
      "outputs": [
        {
          "internalType": "bool",
          "name": "",
          "type": "bool"
        }
      ],
      "stateMutability": "view",
      "type": "function"
    },
    {
      "inputs": [],
      "name": "endAuction",
      "outputs": [],
      "stateMutability": "nonpayable",
      "type": "function"
    },
    {
      "inputs": [],
      "name": "highestBid",
      "outputs": [
        {
          "internalType": "uint256",
          "name": "",
          "type": "uint256"
        }
      ],
      "stateMutability": "view",
      "type": "function"
    },
    {
      "inputs": [],
      "name": "highestBidder",
      "outputs": [
        {
          "internalType": "address",
          "name": "",
          "type": "address"
        }
      ],
      "stateMutability": "view",
      "type": "function"
    },
    {
      "inputs": [],
      "name": "identityContract",
      "outputs": [
        {
          "internalType": "contract IIdentityVerifier",
          "name": "",
          "type": "address"
        }
      ],
      "stateMutability": "view",
      "type": "function"
    },
    {
      "inputs": [],
      "name": "owner",
      "outputs": [
        {
          "internalType": "address",
          "name": "",
          "type": "address"
        }
      ],
      "stateMutability": "view",
      "type": "function"
    },
    {
      "inputs": [],
      "name": "placeBid",
      "outputs": [],
      "stateMutability": "payable",
      "type": "function"
    },
    {
      "inputs": [],
      "name": "startAuction",
      "outputs": [],
      "stateMutability": "nonpayable",
      "type": "function"
    }
  ],
  "bytecode": "0x608060405234801561001057600080fd5b50604051610b15380380610b158339818101604052810190610032919061011c565b806000806101000a81548173ffffffffffffffffffffffffffffffffffffffff021916908373ffffffffffffffffffffffffffffffffffffffff16021790555033600160006101000a81548173ffffffffffffffffffffffffffffffffffffffff021916908373ffffffffffffffffffffffffffffffffffffffff16021790555050610149565b600080fd5b600073ffffffffffffffffffffffffffffffffffffffff82169050919050565b60006100e9826100be565b9050919050565b6100f9816100de565b811461010457600080fd5b50565b600081519050610116816100f0565b92915050565b600060208284031215610132576101316100b9565b5b600061014084828501610107565b91505092915050565b6109bd806101586000396000f3fe60806040526004361061007b5760003560e01c8063922280061161004e5780639222800614610118578063d57bde7914610143578063ecfc7ecc1461016e578063fe67a54b146101785761007b565b806367031bae146100805780636b64c769146100ab5780638da5cb5b146100c257806391f90157146100ed575b600080fd5b34801561008c57600080fd5b5061009561018f565b6040516100a2919061067e565b60405180910390f35b3480156100b757600080fd5b506100c06101b3565b005b3480156100ce57600080fd5b506100d761028c565b6040516100e491906106ba565b60405180910390f35b3480156100f957600080fd5b506101026102b2565b60405161010f91906106ba565b60405180910390f35b34801561012457600080fd5b5061012d6102d8565b60405161013a91906106f0565b60405180910390f35b34801561014f57600080fd5b506101586102eb565b6040516101659190610724565b60405180910390f35b6101766102f1565b005b34801561018457600080fd5b5061018d6104f5565b005b60008054906101000a900473ffffffffffffffffffffffffffffffffffffffff1681565b600160009054906101000a900473ffffffffffffffffffffffffffffffffffffffff1673ffffffffffffffffffffffffffffffffffffffff163373ffffffffffffffffffffffffffffffffffffffff1614610243576040517f08c379a000000000000000000000000000000000000000000000000000000000815260040161023a9061079c565b60405180910390fd5b6001600360146101000a81548160ff0219169083151502179055507fc8f99b9ac2a284b93c3652b9f064a6706724088cdafa9e0a8437c026191b2f0360405160405180910390a1565b600160009054906101000a900473ffffffffffffffffffffffffffffffffffffffff1681565b600360009054906101000a900473ffffffffffffffffffffffffffffffffffffffff1681565b600360149054906101000a900460ff1681565b60025481565b600360149054906101000a900460ff16610340576040517f08c379a000000000000000000000000000000000000000000000000000000000815260040161033790610808565b60405180910390fd5b60008054906101000a900473ffffffffffffffffffffffffffffffffffffffff1673ffffffffffffffffffffffffffffffffffffffff1663b9209e33336040518263ffffffff1660e01b815260040161039991906106ba565b602060405180830381865afa1580156103b6573d6000803e3d6000fd5b505050506040513d601f19601f820116820180604052508101906103da9190610859565b610419576040517f08c379a0000000000000000000000000000000000000000000000000000000008152600401610410906108d2565b60405180910390fd5b600254341161045d576040517f08c379a00000000000000000000000000000000000000000000000000000000081526004016104549061093e565b60405180910390fd5b3460028190555033600360006101000a81548173ffffffffffffffffffffffffffffffffffffffff021916908373ffffffffffffffffffffffffffffffffffffffff1602179055503373ffffffffffffffffffffffffffffffffffffffff167f3fabff0a9c3ecd6814702e247fa9733e5d0aa69e3a38590f92cb18f623a2254d346040516104eb9190610724565b60405180910390a2565b600160009054906101000a900473ffffffffffffffffffffffffffffffffffffffff1673ffffffffffffffffffffffffffffffffffffffff163373ffffffffffffffffffffffffffffffffffffffff1614610585576040517f08c379a000000000000000000000000000000000000000000000000000000000815260040161057c9061079c565b60405180910390fd5b6000600360146101000a81548160ff0219169083151502179055507fdaec4582d5d9595688c8c98545fdd1c696d41c6aeaeb636737e84ed2f5c00eda600360009054906101000a900473ffffffffffffffffffffffffffffffffffffffff166002546040516105f592919061095e565b60405180910390a1565b600073ffffffffffffffffffffffffffffffffffffffff82169050919050565b6000819050919050565b600061064461063f61063a846105ff565b61061f565b6105ff565b9050919050565b600061065682610629565b9050919050565b60006106688261064b565b9050919050565b6106788161065d565b82525050565b6000602082019050610693600083018461066f565b92915050565b60006106a4826105ff565b9050919050565b6106b481610699565b82525050565b60006020820190506106cf60008301846106ab565b92915050565b60008115159050919050565b6106ea816106d5565b82525050565b600060208201905061070560008301846106e1565b92915050565b6000819050919050565b61071e8161070b565b82525050565b60006020820190506107396000830184610715565b92915050565b600082825260208201905092915050565b7f4e6f74206f776e65720000000000000000000000000000000000000000000000600082015250565b600061078660098361073f565b915061079182610750565b602082019050919050565b600060208201905081810360008301526107b581610779565b9050919050565b7f41756374696f6e206e6f74206163746976650000000000000000000000000000600082015250565b60006107f260128361073f565b91506107fd826107bc565b602082019050919050565b60006020820190508181036000830152610821816107e5565b9050919050565b600080fd5b610836816106d5565b811461084157600080fd5b50565b6000815190506108538161082d565b92915050565b60006020828403121561086f5761086e610828565b5b600061087d84828501610844565b91505092915050565b7f4b59432072657175697265640000000000000000000000000000000000000000600082015250565b60006108bc600c8361073f565b91506108c782610886565b602082019050919050565b600060208201905081810360008301526108eb816108af565b9050919050565b7f42696420746f6f206c6f77000000000000000000000000000000000000000000600082015250565b6000610928600b8361073f565b9150610933826108f2565b602082019050919050565b600060208201905081810360008301526109578161091b565b9050919050565b600060408201905061097360008301856106ab565b6109806020830184610715565b939250505056fea2646970667358221220d963c4da0b60d5227ee69e92137b9222fe3c0e66ddf24e0b4906aaad7649530464736f6c634300081c0033",
  "linkReferences": {},
  "deployedLinkReferences": {}
}